:100000000C942A000C943C000C943C000C943C0092
:100010000C943C000C943C000C943C000C943E006E
:100020000C943C000C943C000C943C000C943C0060
:100030000C943C000C943C000C943C000C943C0050
:100040000C943C000C943C000C943C000C943C0040
:100050000C943C0011241FBECFE5D8E0DEBFCDBF1D
:1000600020E0A0E6B0E001C01D92A236B207E1F7A1
:100070000E946A000C947A000C9400001F920F9268
:100080000FB60F9211242F938F939F93809160004E
:1000900090916100019690936100809360000B97AE
:1000A0007CF081E088BB2FE986E891E02150804018
:1000B0009040E1F700C000001092610010926000D3
:1000C0001DBC1CBC9F918F912F910F900FBE0F9064
:1000D0001F9018958FEF87BB1FBC85E08EBD1DBCA0
:1000E0001CBC17BC16BC8EE18BBD85E88ABD80E1C7
:0800F00089BFFFCFF894FFCF98
:00000001FF
